:040000006CEF00F0B1
:1000080000C015F0F2A20DD0F2920B0ED76EDC0EE6
:10001800D66E040E246E000E256E010E266E000E9E
:10002800276EF0A00DD0F0900B0ED76EDC0ED66EBA
:10003800010E246E000E256E010E266E000E276E30
:10004800F2A42BD02650271028E0F2940B0ED76E7E
:10005800DC0ED66E224A232A800E2318006E800EEC
:100068002518005C02E12450225C17E3226A236A07
:10007800164A172A800E1718006E800E005C02E1DF
:100088000A0E165C02E3166A176A180E1624E96E41
:10009800000E1720EA6EEECF83FF15C000F01100A6
:1000A800030E936E956A020ED56E0B0ED76EDC0E9C
:1000B800D66EF294D58EE00EF26E836A82901200AC
:1000C8000900F5CFE6FF0006FBE10106F9E11200A1
:0A00D8007AEC00F0E5DFFFD7FFD758
:1000F40010EE16F0120E006E010E016EE20EF66E98
:0E010400000EF76E000EF86E64EC00F01200B4
:0200E20000001C
:0A00E4003F065B4F666D7D077F6FDE
:0200EE00000010
:0200F00004000A
:0200F20000000C
:020000040030CA
:0E000000000C1F1EFF8381FF0FC00FE00F409A
:00000001FF
