:0400000077EF00F0A6
:1000080000C015F0F2A20DD0F2920B0ED76ECC0EF6
:10001800D66E040E266E000E276E010E246E000E9C
:10002800256EF0A00DD0F0900B0ED76ECC0ED66ECC
:10003800010E266E000E276E010E246E000E256E30
:10004800F2A434D02450251031E0F2940B0ED76E70
:10005800CC0ED66E224A232A800E2318006E800EFC
:100068002718005C02E12650225C20E3226A236AFA
:10007800164A172A800E1718006E800E005C02E1DF
:100088000A0E165C02E3166A176A180E1624E96E41
:10009800000E1720EA6EEECF83FF000E171802E15C
:1000A800000E161802E1828001D0829015C000F07F
:0200B800110035
:1000BA00030E936E956AFE0E946E020ED56E0B0EAB
:1000CA00D76ECC0ED66EF294D58EE00EF26E836A9F
:0400DA0082901200FE
:1000DE000900F5CFE6FF0006FBE10106F9E112008B
:0A00EE0085EC00F0E3DFFFD7FFD739
:10010A0010EE16F0120E006E010E016EF80EF66E6B
:0E011A00000EF76E000EF86E6FEC00F0120093
:0200F800000006
:0A00FA003F065B4F666D7D077F6FC8
:020104000000F9
:020106000000F7
:020108000400F1
:020000040030CA
:0E000000000C1F1EFF8381FF0FC00FE00F409A
:00000001FF
